{
  "contractName": "demo",
  "abi": [
    {
      "inputs": [],
      "name": "add",
      "outputs": [
        {
          "internalType": "uint256",
          "name": "",
          "type": "uint256"
        }
      ],
      "stateMutability": "view",
      "type": "function",
      "constant": true
    }
  ],
  "bytecode": "0x60806040526002600055600360015534801561001a57600080fd5b5061011e8061002a6000396000f3fe6080604052348015600f57600080fd5b506004361060285760003560e01c80634f2be91f14602d575b600080fd5b60336047565b604051603e91906073565b60405180910390f35b60006001546000546057919060bb565b905090565b6000819050919050565b606d81605c565b82525050565b6000602082019050608660008301846066565b92915050565b7f4e487b7100000000000000000000000000000000000000000000000000000000600052601160045260246000fd5b600060c482605c565b915060cd83605c565b925082820390508181111560e25760e1608c565b5b9291505056fea26469706673582212207d7db8d7c0c6c218fcbe5c2881fc8af76a3f1c2ba611b233cb4a2cae74fa48cc64736f6c63430008130033",
  "immutableReferences": {},
  "source": "// SPDX-License-Identifier: MIT\r\npragma solidity ^0.8.15;\r\n\r\ncontract demo {\r\n    uint number = 2;\r\n    uint number2 = 3;\r\n\r\n    function add() public view returns (uint) {\r\n        return (number - number2);\r\n    }\r\n}\r\n",
  "sourcePath": "C:\\Users\\nooth\\Desktop\\learning\\Practice\\contracts\\demo.sol",
  "compiler": {
    "name": "solc",
    "version": "0.8.19+commit.7dd6d404.Emscripten.clang"
  },
  "schemaVersion": "3.4.13",
  "updatedAt": "2023-04-30T13:59:35.534Z",
  "networkType": "ethereum",
  "devdoc": {
    "kind": "dev",
    "methods": {},
    "version": 1
  },
  "userdoc": {
    "kind": "user",
    "methods": {},
    "version": 1
  }
}